:1000000058C006C271C070C06FC06EC06DC06CC0F9
:100010006BC06AC069C068C067C066C065C064C0A4
:1000200063C062C061C00403090422037700770043
:1000300077002E0072006500630075007200730087
:1000400069006F006E002E006A00700010035500FA
:10005000530042002D003200330032001201100123
:1000600002000008C016E1050001010200010902BA
:100070004300020100803209040000010202010075
:1000800005240010010424020205240600010524B1
:10009000010301070583030800FF09040100020AA8
:1000A00000000007050102080000070581020800A2
:1000B000000011241FBECFE5D4E0DEBFCDBF10E0AD
:1000C000A0E6B0E0ECE7FAE002C005900D92AC3695
:1000D000B107D9F712E0ACE6B0E001C01D92A4343C
:1000E000B107E1F713D4C8C48BCF85B7826085BF51
:1000F0008BB780648BBF8BE4809381008093AC00CE
:100100008AE5809380008093AB0008951F93DC0103
:10011000162F8091AB0084FF07C08091AC0098E857
:1001200089278093AC0003C08AE58093AB00912FB0
:10013000EDEAF0E08D91819391501916DCF38DEA90
:1001400090E0612F61D11C5F1093AB001F91089567
:100150001F93DC01162F8091800084FF07C08091DF
:10016000810098E889278093810003C08AE5809305
:100170008000912FE2E8F0E08D9181939150191663
:10018000DCF382E890E0612F3FD11C5F1093800088
:100190001F9108951F93CF93DF9360919100635057
:1001A00067FDB3C080918E00CCE0D0E0C81BD109C0
:1001B000CB56DF4F80918D00803118F4CE018AD369
:1001C0009EC08D3209F08BC0683009F098C083EC76
:1001D000809375008AE58093600010926C0088819E
:1001E000807621F0CE0137D3282F66C09A811092F5
:1001F0007E008981882321F410927F0022E055C07F
:10020000853019F4909392004FC08630B9F58B81F8
:10021000813041F48CE590E09093900080938F00C2
:1002200022E128C0823021F4CE0100D3282F22C041
:100230008330F9F48A81882341F486E290E0909338
:10024000900080938F0024E015C0813041F48AE251
:1002500090E09093900080938F0022E20BC0823058
:1002600041F48CE490E09093900080938F0020E123
:1002700001C020E080E480936C001EC0883021F42F
:1002800021E084E990E013C0893019F49093940040
:100290000BC08A3011F421E008C08B3029F48BE4C4
:1002A000809381008093AC0020E08EE790E09093F3
:1002B000900080938F0009C02F3F39F4888187FD1B
:1002C0002E8180E880936C0006C08F81882319F40A
:1002D0008E81821708F0822F8093610010C0809178
:1002E0006C0087FF0CC0CE016ED38F3F21F48EE1EE
:1002F0008093600004C0882311F010926100809107
:100300009100181614F4109291008091600084FFFF
:1003100058C0809161008F3F09F453C0182F893075
:1003200008F018E0811B809361008091750098E8C7
:10033000892780937500112391F180916C0087FFCC
:1003400008C086E790E0612FADD2182F893098F56C
:1003500026C020918F003091900086FF0DC0A6E747
:10036000B0E080E090E0F901E80FF91FE491ED932F
:1003700001961817C1F708C0912FD901E6E7F0E000
:100380008D9181939150E1F71150812F90E01F5F83
:100390000196820F931F9093900080938F0086E7C1
:1003A00090E0612F31D0612F6C5F6C3041F08FEFA6
:1003B0008093610004C08FEF809361006EE16093D1
:1003C000600094E186B3837031F49150D9F71092B4
:1003D000920010928C00DF91CF911F910895A82F69
:1003E000B92F80E090E041E050EA609530E009C02C
:1003F0002D9182279795879510F084279527305E59
:10040000C8F36F5FA8F30895EADF8D939D93089575
:10041000CF93CFB7CF93C395B09BE9F7B09B09C0FB
:10042000B09B07C0B09B05C0B09B03C0B09B01C090
:10043000A6C0DF93C0918E00DD27CB56DF4FB09B67
:1004400002C0DF91EBCF2F930F931F9306B32FEFD3
:1004500000FB20F94F933F9316B34FEF012700FBAA
:1004600021F93BE031C04E7F012F16B3216028C037
:10047000102F4D7F2260000006B329C04B7F2460FF
:10048000012F000016B32BC016B3477F28602AC087
:100490004F7E06B320612CC04F7D16B320622FC063
:1004A0004F7B06B3206432C0422706B349934FEF17
:1004B0000000102710FB20F916B31370C9F1297F33
:1004C00091F2012700FB21F906B3237F89F2315015
:1004D00058F1102710FB22F916B3277E79F2012775
:1004E00000FB23F92F7C81F206B3102710FB24F9BF
:1004F0002F7971F200C016B3012700FB25F92F7385
:1005000059F200C006B3102710FB26F9223040F242
:1005100000C016B3012700FB27F9243028F64F77D7
:10052000206816B30000F9CF10E41ABF00271CC0E2
:100530003B503195C31BD04010E41ABF0881033CE7
:1005400011F10B3401F120918C001981110F12135C
:10055000EDCF4A81441F093659F10D3211F0013EA9
:1005600029F74F7009F0042F009393003F914F91AA
:100570001F910F912F91DF91CAB7C6FD4CCFCF913C
:10058000CFBFCF91189520919300222379F310913A
:1005900091001123C1F53430C2F1309391002093C2
:1005A0008D0010918E003BE0311B30938E002DC0EA
:1005B0000091910001303CF50AE54F7049F430910B
:1005C000600034FD24C000936000C5E7D0E023C084
:1005D000433049F03091800034FD19C00093800011
:1005E000C1E8D0E018C03091AB0034FD10C00093DA
:1005F000AB00CCEAD0E00FC02795A8F45150A9F485
:10060000220F0000F9CF4AE503C042ED01C0432F9D
:10061000C4E1D0E032E017B31360C09A17BB08B34F
:1006200020E413E05F93012756E008BB279520F4F0
:10063000515021F4220FF9CF012756E000003B5A18
:1006400008BBD0F2279528F4515029F4220F00005E
:10065000F9CF012756E0279508BB20F4515021F42B
:10066000220FF9CF012756E02991332308BB21F649
:100670000C7F10919200110FC651D04008BB11F0B1
:1006800010938C0010E41ABF016017B31C7F402F39
:100690004C7F5F9100C000C008BB17BB48BB66CF52
:1006A000BF92CF92DF92EF92FF920F931F936B0155
:1006B0007C01B42E122F9695879577956795605A91
:1006C0007C41894E9F4FA7019601B4D12150304003
:1006D00040405040599A1AB881E0B81611F440EBE6
:1006E00004C04B2D4295407F4068802F90E00597D5
:1006F000880F991F1695110F110F110F182B412BF1
:1007000040BD29B930BD88E18AB984E187BB8FEF4C
:1007100088BB1F910F91FF90EF90DF90CF90BF901B
:1007200008950F931F9330914102909142020FC0A0
:10073000E92FF0E0E05CFE4F80818CB99F5F8091F3
:10074000910087FF07C0293028F010929100292FCF
:10075000231B01C02F5F5D9B0BC0391739F4309309
:10076000420290914002E0913F0115C0B599E0CF5F
:1007700090934202F6CF391751F08BB12CB18C71A6
:1007800071F4F0E0E954FF4F2083E32F04C0E093BD
:100790003F01C49808C0EF5F3E2F3F77E1505F995B
:1007A000EACFE0933F018091800084FF3CC06091DC
:1007B0003F01691721F4809143028823A1F1162F8C
:1007C000191B1F77193008F018E0012F090F07FFD8
:1007D00010C00F77A7EBB0E0202F30E02A0F3B1FAF
:1007E00005C0FD01E058FF4F8D918083A217B3072C
:1007F000C1F7892F90E089549F4F612FA9DC0093A6
:100800004002112361F0C49A183049F490E08091BD
:100810003F01801391E081E09827892F02C080E09A
:1008200090E0809343021F910F910895FC01838112
:10083000813049F48CE590E09093900080938F0094
:1008400080915C0008958EE690E0909390008093F4
:100850008F0083E40895FC012081822F807680320E
:10086000F9F49181892F8052823010F48FEF08952E
:10087000923279F488B392819170990F990F8B7F9E
:10088000982B98BB80916D00882319F482E08093A7
:100890006D0027FD05C081E08093430280E008954C
:1008A00080E00895FC018091710080838091720046
:1008B000818380917300828380917400838380910F
:1008C0006E00848380916F008583809170008683A1
:1008D00087E00895DC01909142020CC02E2F2F5F1B
:1008E000291739F0F0E0E05CFE4F8D918083209372
:1008F00041026150E0914102662381F791509E1BB5
:10090000993018F48FEF8093910008950F932EE0A3
:1009100088E190E00FB6F894A89581BD0FBE21BD87
:100920008CEF88BB83E087BBA89584EC99E02CE230
:1009300031E0F9013197F1F70197D9F717BA80E85B
:1009400095E2A0E0B0E08093710090937200A093D4
:100950007300B093740010926E0010926F0088E0E4
:100960008093700060E875E280E090E040E020E075
:1009700008E096DE1092420210923F01109240026F
:1009800010924102B2DB10926D00109243027894F3
:10099000A89500DCC6DE90916D009923C9F3809183
:1009A000AB0084FFF5CF923021F482E690E068E05E
:1009B00003C08AE690E062E0A9DB80916D0081507F
:1009C00080936D00E5CF0F93FC01808180937100CF
:1009D00081818093720082818093730083818093F0
:1009E0007400948190936E00858180936F000681DE
:1009F00000937000833010F010926F00913011F46A
:100A000010926E006091710070917200809173007D
:100A10009091740040916F0020916E0041DE109221
:100A2000420210923F01109240021092410281E076
:100A30000F910895A1E21A2EAA1BBB1BFD010DC048
:100A4000AA1FBB1FEE1FFF1FA217B307E407F5077E
:100A500020F0A21BB30BE40BF50B661F771F881F5A
:100A6000991F1A9469F760957095809590959B01F0
:0C0A7000AC01BD01CF010895F894FFCF48
:0C0A7C005AFFA12000000000020003004F
:00000001FF
